:020000040000FA
:0600000019EF02F01200EE
:0A0006000100660400006000000025
:0400100010000000DC
:0C001400D9CFE6FFE1CFD9FF956AFE0EC0
:10002000DB50836E89928994B9EC00F08980B9EC39
:1000300000F08990B9EC00F0956800D0E552E7CF68
:10004000D9FF1200D9CFE6FFE1CFD9FF956AFE0EA6
:10005000DB50836E89848992B9EC00F08980B9EC19
:1000600000F08990B9EC00F08994956800D0E552D1
:10007000E7CFD9FF1200D9CFE6FFE1CFD9FF836ADE
:10008000956A929292949290899289948990CEECFA
:1000900000F0300EE66EBEDFE552050EE66ECCECEB
:1000A00001F0E552300EE66EB5DFE552010EE66E68
:1000B000CCEC01F0E552320EE66EACDFE552E3EC3B
:1000C00001F0000901E0FBD7E3EC01F0000901E0D9
:1000D000FBD7FE0EDBCFE6FF9DDFE552E3EC01F040
:1000E000000901E0FBD7080EE66E94DFE552E3EC71
:1000F00001F0000901E0FBD70F0EE66E8BDFE55241
:10010000E3EC01F0000901E0FBD7010EE66E82DFAF
:10011000E552E3EC01F0000901E0FBD7800EE66E4A
:100120007AEC01F0E55200D0E552E7CFD9FF12009A
:10013000D9CFE6FFE1CFD9FFFD0EDBCFE9FFFE0E01
:10014000DBCFEAFFEF5010E0FD0EDBCFE9FFFE0E44
:10015000DBCFEAFFEF50E66E75DFE552FD0EDB2ADE
:10016000FE0E01E3DB2AE8D700D0E552E7CFD9FF46
:0201700012007B
:0E017200D9CFE6FFE1CFD9FFE652DF6A0A0ED1
:10018000DF5C07E2320EE66E27EC02F0E552DF2A72
:10019000F6D7E552E552E7CFD9FF12004B0EE66ED7
:1001A000F9EC01F0E55200D01200D9CFE6FFE1CF23
:1001B000D9FFE652DF6A140EDF5C07E2190EE66E25
:1001C000F9EC01F0E552DF2AF6D700D0E552E5520E
:1001D000E7CFD9FF1200D9CFE6FFE1CFD9FFE65232
:1001E000DF6AFE0EDB50D880DF5407E3050EE66EB3
:1001F000F9EC01F0E552DF2AF4D700D0E552E552E0
:10020000E7CFD9FF1200D9CFE6FFE1CFD9FF020E29
:10021000E126DF6AFE0EDB50DF5C13E2010EDB6AD3
:100220000A0EF36E010EDBCFF4FFF350F45C07E22D
:10023000640EE66ED0DFE552010EDB2AF1D7DF2A2D
:10024000E9D7020EE15C02E2E16AE552E16EE552B5
:06025000E7CFD9FF120008
:0A025600060EF66E000EF76E000EA5
:10026000F86E00010900F550756F0900F550766FC2
:1002700003E1756701D03DD00900F550706F0900AA
:10028000F550716F0900F550726F09000900F550C3
:10029000E96E0900F550EA6E090009000900F55001
:1002A000736F0900F550746F09000900F6CF77F0FD
:1002B000F7CF78F0F8CF79F070C0F6FF71C0F7FF94
:1002C00072C0F8FF0001735302E1745307E00900A4
:1002D000F550EE6E7307F8E27407F9D777C0F6FFB2
:1002E00078C0F7FF79C0F8FF00017507000E765B54
:0402F000BFD7120062
:0C02F400D9CFE6FFDACFE6FFE1CFD9FF5B
:10030000E2CFDAFFF00E93168116FD0EDB50800966
:10031000E8380F0B0F0B81128A9C8A9A0FD8F00EC7
:100320008116FD0EDB500F0B811208D80F0E9312B1
:10033000E552E5CFDAFFE7CFD9FF1200B9EC00F0C4
:0A0340008A88B9EC00F08A981200D8
:06034A00E66A3BEC00F046
:10035000E5520C0EE66E0AEC00F0E552600EE66E19
:10036000000EE66E98EC00F0E552E552010EE66EE6
:1003700003EC01F0E552010EE66E0AEC00F0E552E6
:10038000010EE66E03EC01F0E552800EE66E0AEC1B
:0803900000F0E552E3D7120072
:08039800FF0EE350036EEF0EAF
:1003A00001D0F30EE76EE72ED3EF01F00C0E026ED4
:1003B000E76AE72ED9EF01F0022ED8EF01F0032E05
:0603C000D1EF01F0120074
:0A03C6008A8C8A9AB9EC00F08A884C
:1003D000B9EC00F081A602D003D8010C01D8000CC2
:1003E0008A98B9EC00F08A88B9EC00F08A988A9C67
:0203F0001200F9
:0E03F200FF0EE350036E480E01D04C0EE76E76
:10040000E72EFED7E76AE72EFED7032EF7D70000C8
:020410001200D8
:0E041200000EF36E00EE00F0080E01D812008E
:10042000EA6002D0EE6AFCD7F350E9601200EE6A8F
:02043000FCD7F7
:0E04320013EE00F023EE00F0F86A019C2BECB4
:0E04400001F032EC02F0A5EC01F0FBD7120047
:02044E00FF0E9F
:10045000E350E84E1200000000D000D000D0E82E9B
:04046000FAD71200B5
:02046400120084
:0A0466004D4943524F4348495020CE
:060470004D504C4142001A
:020000040030CA
:010001000CF2
:0100020019E4
:010003001EDE
:010005008179
:010006008079
:010008000FE8
:00000001FF
