:0400000030EF3FF0AE
:107D78004B0EC0EC3EF01200116EFA0E00F0E82E29
:107D8800FDD7112EFAD71200116E030EE82EFED77A
:107D980000F0112EFAD712004D4943524F4348497B
:107DA80050204D504C414200000E126E04D0320E4D
:107DB800C8EC3EF0122A090E1264F9D71200126EAE
:107DC8000D0E116EFC0EE82EFED7112EFCD7122ECA
:107DD800F7D71200126E000E136E04D0050EC0EC19
:107DE8003EF0132A1350125CD8A01200F7D7136E76
:107DF800000E956E13C083FF89928994D8EC3EF0EB
:107E08008980D8EC3EF08990D8EC3EF09568120055
:107E1800136E000E956E13C083FF89848992D8EC87
:107E28003EF08980D8EC3EF08990D8EC3EF08994F9
:107E38009568120009D014C0D9FF15C0DAFFDF50C9
:107E48000CEC3FF0144A152A14C0D9FF15C0DAFF0C
:107E5800DF50D8B41200EFD7A00EF66E7D0EF76E85
:107E6800000EF86E00EE01F010EE10F00900F5CFEC
:107E7800EEFFE550E150FAE1000157EF3FF0146ED4
:107E8800000E156E0BD0000E166E04D0640EEEECCC
:107E98003EF0162A090E1664F9D7152A1450155CF7
:107EA800D8B01200F0D7000EB6EC3FF00C0EFBEC89
:107EB8003EF0000E156E010E146E1EEC3FF0010E22
:107EC80043EC3FF0010EFBEC3EF0010E43EC3FF0BB
:107ED800800EFBEC3EF0EDD78A8C8A9AD8EC3EF007
:107EE8008A88D8EC3EF081A60AD08A98D8EC3EF071
:107EF8008A88D8EC3EF08A988A9C010E09D08A9824
:107F0800D8EC3EF08A88D8EC3EF08A988A9C000E1D
:107F18001200166EF00E9316F00E81161650136EA0
:107F2800146A138E040E156E143414321332152E7F
:107F3800FBD713500F0B81128A9C8A9AD8EC3EF01B
:107F48008A88D8EC3EF08A98F00E811616500F0BEE
:107F58008112D8EC3EF08A88D8EC3EF08A980F0E51
:107F680093121200176E000E836E000E956E929299
:107F780092949290899289948990BCEC3EF0300E4C
:107F8800FBEC3EF0050EE3EC3EF0300EFBEC3EF071
:107F9800010EE3EC3EF0320EFBEC3EF070EC3FF0ED
:107FA8000009D8A4FBD770EC3FF00009D8A4FBD790
:107FB8001750FBEC3EF070EC3FF00009D8A4FBD75B
:107FC800080EFBEC3EF070EC3FF00009D8A4FBD79C
:107FD8000F0EFBEC3EF070EC3FF00009D8A4FBD785
:107FE800010EFBEC3EF070EC3FF00009D8A4FBD783
:087FF800800E8DEC3FF0120039
:020000040020DA
:08000000FFFFFFFFFFFFFFFF00
:020000040030CA
:0E000000040C1F1EFF8081FF0FC00FE00F4099
:00000001FF
