:020000040000FA
:0600000037EF03F01200CF
:0A0006000100A20600006A000000DD
:0400100002000000EA
:0C0014008982899435EC01F0898035EC7C
:1000200001F083AE05D089908992010E05D004D0ED
:1000300089908992000E00D01200D9CFE6FFE1CF5F
:10004000D9FF956AFE0EDB50836E8992899435EC58
:1000500001F0898035EC01F0899035EC01F095686C
:1000600000D0E552E7CFD9FF1200D9CFE6FFE1CFAC
:10007000D9FF956AFE0EDB50836E8984899235EC38
:1000800001F0898035EC01F0899035EC01F089941C
:10009000956800D0E552E7CFD9FF1200D9CFE6FF2F
:1000A000E1CFD9FF836A956A929292949290899255
:1000B000899489904AEC01F0300EE66EBEDFE5527D
:1000C000050EE66EE9EC02F0E552300EE66EB5DFA5
:1000D000E552010EE66EE9EC02F0E552320EE66EF4
:1000E000ACDFE55297DF000901E0FCD793DF0009A0
:1000F00001E0FCD7FE0EDBCFE6FF9FDFE5528ADF93
:10010000000901E0FCD7080EE66E97DFE55282DFBA
:10011000000901E0FCD70F0EE66E8FDFE5527ADFB3
:10012000000901E0FCD7010EE66E87DFE55272DFC1
:10013000000901E0FCD7800EE66E79EC02F0E55292
:0A01400000D0E552E7CFD9FF12000E
:06014A000A0EE66E00EC57
:1001500003F0E552ACA2FED70D0EE66E00EC03F004
:10016000E552ACA2FED71200D9CFE6FFE1CFD9FF0E
:10017000160EE126D950010FE96EDACFEAFF450EDF
:10018000EE6E6E0EEE6E740EEE6E650EEE6E720E0E
:10019000EE6E200EEE6E610EEE6E200EEE6E630EB3
:1001A000EE6E680EEE6E610EEE6E720EEE6E610E0B
:1001B000EE6E630EEE6E740EEE6E650EEE6E720EE9
:1001C000EE6E0A0EEE6E0D0EEE6EEE6A150EDB6A28
:1001D0000F0EC16E6BC0E6FF6AC0E6FF3BEC02F09B
:1001E000E552E552300EE66E4EEC00F0E5520C0E94
:1001F000E66E1DEC00F0E552010EE66E1DEC00F01F
:10020000E552D950010FE66E000EDA20E66EA4EC3E
:1002100002F0E552E552ACA2FED74FEC02F0DF6EE1
:10022000DFCFE6FF69EC02F0E5528FDF0AEC00F069
:10023000000901E0FBD7010EE66E1DEC00F0E5526F
:10024000860EE66E1DEC00F0E552DFCFE6FF35ECE2
:1002500000F0E552D6D7160EE15C02E2E16AE55203
:0A026000E16EE552E7CFD9FF12006E
:06026A00D9CFE6FFE1CF51
:10027000D9FFE652DF6A0A0EDF5C07E2320EE66E55
:1002800045EC03F0E552DF2AF6D7E552E552E7CF19
:10029000D9FF12004B0EE66E17EC03F0E55200D0CA
:1002A0001200D9CFE6FFE1CFD9FFE652DF6A140E84
:1002B000DF5C07E2190EE66E17EC03F0E552DF2A69
:1002C000F6D700D0E552E552E7CFD9FF1200D9CFDB
:1002D000E6FFE1CFD9FFE652DF6AFE0EDB50D880A1
:1002E000DF5407E3050EE66E17EC03F0E552DF2A54
:1002F000F4D700D0E552E552E7CFD9FF1200D9CFAD
:10030000E6FFE1CFD9FF020EE126DF6AFE0EDB50E9
:10031000DF5C13E2010EDB6A0A0EF36E010EDBCF27
:10032000F4FFF350F45C07E2640EE66ED0DFE552B2
:10033000010EDB2AF1D7DF2AE9D7020EE15C02E2E7
:0E034000E16AE552E16EE552E7CFD9FF120007
:02034E00060E99
:10035000F66E000EF76E000EF86E00010900F55003
:10036000656F0900F550666F03E1656701D03DD008
:100370000900F550606F0900F550616F0900F550F4
:10038000626F09000900F550E96E0900F550EA6E48
:10039000090009000900F550636F0900F550646F0A
:1003A00009000900F6CF67F0F7CF68F0F8CF69F0E1
:1003B00060C0F6FF61C0F7FF62C0F8FF0001635341
:1003C00002E1645307E00900F550EE6E6307F8E2BE
:1003D0006407F9D767C0F6FF68C0F7FF69C0F8FF88
:0C03E00000016507000E665BBFD712002D
:0403EC00D9CFE6FF80
:1003F000DACFE6FFE1CFD9FFE2CFDAFFAC6AAB6A32
:10040000FD0EDBB0AC88DBA202D0AC8CAB8CDBB4D5
:10041000AC8EDBA602D0AB8801D0AB8ADBB8AC8453
:100420009E98DBBAAB86DBAC02D09D8A01D09D9A48
:100430009E9ADBAE02D09D8801D09D98FB0EDB50CA
:10044000AF6EFB0EFC0EDBCF03F003C002F0036ABD
:100450000250B06EAC8AAB8E949C948EAC50100B54
:1004600004E0AC50800B01E1948CE552E5CFDAFF5B
:06047000E7CFD9FF1200E6
:0A047600D9CFE6FFE1CFD9FFFD0E5C
:10048000DBCFE6FFE66AFE0EDBCFE6FFF6EC01F01F
:10049000E552E552E552E552E7CFD9FF12009EAA98
:1004A000FED7CAEC02F000D01200D9CFE6FFE1CFB0
:1004B000D9FFFD0EDBCFE6FFFE0EDBCFE6FFA4EC9F
:1004C00002F0E552E552ACA2FED7E552E7CFD9FFE4
:1004D0001200D9CFE6FFE1CFD9FFFE0EDBCFE6FF5A
:1004E00000EC03F0E552ACA2FED7E552E7CFD9FF0E
:0204F0001200F8
:0E04F200D9CFE6FFDACFE6FFE1CFD9FFE2CFA8
:10050000DAFFF00E93168116FD0EDB508009E838F5
:100510000F0B0F0B81128A9C8A9A0FD8F00E81164E
:10052000FD0EDB500F0B811208D80F0E9312E5520F
:10053000E5CFDAFFE7CFD9FF120035EC01F08A886A
:0805400035EC01F08A9812006D
:08054800D9CFE6FFDACFE6FF90
:10055000E1CFD9FFE2CFDAFFACA2FED7FC0EDBCFB2
:10056000E9FFFD0EDBCFEAFFEF50E66E00EC03F093
:10057000E552FC0EDBCFE9FFDB2AFD0EDBCFEAFF05
:1005800001E3DB2AEF50E8E1E552E5CFDAFFE7CF00
:04059000D9FF12007D
:0C059400D9CFE6FFDACFE6FFE1CFD9FFB8
:1005A000E2CFDAFFE652F20E00016C17ABAC03D0DB
:1005B0006C91ABB06C81ABB46C85ABB26C87AE5058
:1005C000DF6EDF50E552E552E5CFDAFFE7CFD9FF26
:0205D000120017
:0E05D200FF0EE350056EEF0E01D0F30EE76E44
:1005E000E72EF0EF02F00C0E046EE76AE72EF6EF4E
:1005F00002F0042EF5EF02F0052EEEEF02F01200ED
:10060000D9CFE6FFDACFE6FFE1CFD9FFE2CFDAFFBD
:10061000ACAC04D0AC9000016CB3AC80FD0EDB50F0
:0E062000AD6EE552E5CFDAFFE7CFD9FF12004D
:02062E00FF0EBD
:10063000E350056E480E01D04C0EE76EE72EFED754
:0E064000E76AE72EFED7052EF7D7000012005E
:02064E00000E9C
:10065000F36E00EE00F0080E01D81200EA6002D03E
:0E066000EE6AFCD7F350E9601200EE6AFCD798
:02066E0013EE89
:1006700000F023EE00F0F86A019CA7EC01F050ECCA
:0A06800003F0B4EC00F0FBD7120009
:06068A00FF0EE350E84EF4
:100690001200000000D000D000D0E82EFAD71200DF
:0206A000120046
:0206A2002C1F0B
:020000040030CA
:010001000CF2
:0100020019E4
:010003001EDE
:010005008179
:010006008079
:010008000FE8
:00000001FF
