:040000000BEF3FF0D3
:107CB0004B0E78EC3EF012009EAAFED7B5EC3EF0DB
:107CC0001200026E025080EC3EF0ACB21200FDD702
:107CD000086E07C001F0026A085048EC3FF012003D
:107CE000016E030EE82EFED700F0012EFAD7120027
:107CF000016EFA0E00F0E82EFDD7012EFAD7120021
:107D0000016EACAC03D0AC9035B2AC8001C0ADFF1D
:107D100012000A0E80EC3EF0ACA2FED70D0E80ECF5
:107D20003EF0ACB21200FDD7000E026E04D0320E4F
:107D300070EC3EF0022A090E0264F9D71200026EBE
:107D40000D0E016EFC0EE82EFED7012EFCD7022E82
:107D5000F7D71200456E7465722061206368617206
:107D600061637465720A0D002C1FF20E3516ABAC00
:107D700003D03590ABB03580ABB43584ABB235862B
:107D8000AECF01F0015012008982899494EC3EF04C
:107D9000898094EC3EF083AE04D089908992010EE4
:107DA00003D089908992000E1200036E000E956E2A
:107DB00003C083FF8992899494EC3EF0898094EC0F
:107DC0003EF0899094EC3EF095681200036E000E30
:107DD000956E03C083FF8984899294EC3EF089807C
:107DE00094EC3EF0899094EC3EF0899495681200F2
:107DF000ACA2FED702C0D9FF03C0DAFFDF5080EC8F
:107E00003EF002C0D9FF03C0DAFF024A032ADF5066
:107E1000D8B41200EDD7356A540EF66E7D0EF76EAB
:107E2000000EF86E00EE1FF010EE16F00900F5CF10
:107E3000EEFFE550E150FAE100017CEF3FF0066E05
:107E4000F00E9316F00E81160650036E046A038E30
:107E5000040E056E043404320332052EFBD70350A2
:107E60000F0B81128A9C8A9A94EC3EF08A8894ECDB
:107E70003EF08A98F00E811606500F0B811294EC9A
:107E80003EF08A8894EC3EF08A980F0E931212000E
:107E9000066E000EAC6E000EAB6E06B0AC8806A28D
:107EA00002D0AC8CAB8C06B4AC8E06A602D0AB88EC
:107EB00001D0AB8A06B8AC849E9806BAAB8606ACF5
:107EC00002D09D8A01D09D9A9E9A06AE02D09D88CE
:107ED00001D09D9801C0AFFF02C003F003C004F0C1
:107EE000056A0450B06EAC8AAB8E949C948EACB88C
:107EF000ACBE01D0948C120020EE1FF010EE09F001
:107F0000140EDECFE6FFE82EFCD7000E1D6E0F0E1E
:107F1000C16E34C007F0335068EC3EF0300EB6EC62
:107F20003FF00C0ED5EC3EF0010ED5EC3EF0000E0D
:107F3000036E090E026EF8EC3EF0ACA2FED75CECCC
:107F40003EF01E6E1E5061EC3EF089EC3EF0C4EC3B
:107F50003EF00009D8A4FBD7010ED5EC3EF0860E0A
:107F6000D5EC3EF01E50E6EC3EF0E1D7076E000E79
:107F7000836E000E956E929292949290899289945B
:107F8000899058EC3EF0300ED5EC3EF0050E9FEC9B
:107F90003EF0300ED5EC3EF0010E9FEC3EF0320E7E
:107FA000D5EC3EF0C4EC3EF00009D8A4FBD7C4ECFD
:107FB0003EF00009D8A4FBD70750D5EC3EF0C4EC46
:107FC0003EF00009D8A4FBD7080ED5EC3EF0C4EC77
:107FD0003EF00009D8A4FBD70F0ED5EC3EF0C4EC60
:107FE0003EF00009D8A4FBD7010ED5EC3EF0C4EC5E
:107FF0003EF00009D8A4FBD7800E1FEC3FF0120022
:020000040020DA
:08000000FFFFFFFFFFFFFFFF00
:020000040030CA
:0E000000040C191EFF8081FF0FC00FE00F409F
:00000001FF
