:040000009FEF3EF040
:107D3E00000165EF3FF0FA0E00F0E82EFDD7012EA0
:107D4E00FAD71200026E4B0E016E0250A2EC3EF0FC
:107D5E001200030EE82EFED700F0012EFAD7120005
:107D6E000D0E026EFB0EE82EFED7022EFCD700D0B3
:107D7E00012EF6D71200036E000E046E035007D0CC
:107D8E00036E050E016E0350A2EC3EF0042A045061
:107D9E000260F6D71200026E000E036E025007D07C
:107DAE00026E320E016E0250B0EC3EF0032A090E46
:107DBE000364F6D71200000E956E04C083FF8992FD
:107DCE008994D2EC3EF08980D2EC3EF08990D2ECD0
:107DDE003EF095681200000E956E04C083FF8984F4
:107DEE008992D2EC3EF08980D2EC3EF08990D2ECB2
:107DFE003EF0899495681200066E000E076E0650CE
:107E0E0010D0066E000E086E065007D0066E640E79
:107E1E00026E0650C2EC3EF0082A090E0864F6D730
:107E2E00072A0550075CD8B01200EBD78A8C8A9AC5
:107E3E00D2EC3EF08A88D2EC3EF081A60AD08A9827
:107E4E00D2EC3EF08A88D2EC3EF08A988A9C010EE3
:107E5E0009D08A98D2EC3EF08A88D2EC3EF08A980D
:107E6E008A9C000E1200F00E9316F00E811604502E
:107E7E00056E066A800E0512000E0612040E076EBF
:107E8E00063406320532072EFBD705500F0B811232
:107E9E008A9C8A9AD2EC3EF08A88D2EC3EF08A987E
:107EAE00F00E811604500F0B8112D2EC3EF08A8830
:107EBE00D2EC3EF08A980F0E931212000A6E000E4C
:107ECE000C6E0A500A6E000E086E0A509BEC3FF0C4
:107EDE000A6E0C0E046E0A50E2EC3EF00A6E410E73
:107EEE000B6E0A500A6E000E0C6E0A5018D00A6EF7
:107EFE00840E046E0A50E2EC3EF00BC004F0F2EC7D
:107F0E003EF00B2A0C2A0A6E010E056E0A5003EC87
:107F1E003FF00A6E010E046E0A50E2EC3EF00C5079
:107F2E001A0AD8B4DBD7E3D7000E836E000E956E17
:107F3E00929292949290899289948990A9EC3EF0B3
:107F4E00096E300E046E0950E2EC3EF0096E050E1D
:107F5E00016E0950B7EC3EF0096E300E046E0950FA
:107F6E00E2EC3EF0096E010E016E0950B7EC3EF0E8
:107F7E00096E320E046E0950E2EC3EF01DEC3FF03D
:107F8E000009D8A4FBD71DEC3FF00009D8A4FBD7FD
:107F9E0008C004F0E2EC3EF01DEC3FF00009D8A45E
:107FAE00FBD7096E080E046E0950E2EC3EF01DEC94
:107FBE003FF00009D8A4FBD7096E0F0E046E0950CE
:107FCE00E2EC3EF01DEC3FF00009D8A4FBD7096EA1
:107FDE00010E046E0950E2EC3EF01DEC3FF000097C
:107FEE00D8A4FBD7096E800E046E09503AEC3FF010
:027FFE0012006F
:020000040020DA
:08000000FFFFFFFFFFFFFFFF00
:020000040030CA
:0E000000040C1F1EFF8081FF0FC00FE00F4099
:00000001FF
