:020000040000FA
:0600000006EF02F0120001
:020006000000F8
:08000800D9CFE6FFE1CFD9FFDB
:10001000956AFE0EDB50836E8992899492EC00F013
:10002000898092EC00F0899092EC00F0956800D005
:10003000E552E7CFD9FF1200D9CFE6FFE1CFD9FFD4
:10004000956AFE0EDB50836E8984899292EC00F0F3
:10005000898092EC00F0899092EC00F08994956888
:1000600000D0E552E7CFD9FF1200D9CFE6FFE1CFAC
:10007000D9FF836A956A9292929492908992899418
:100080008990A7EC00F0300EE66EBEDFE552050E5B
:10009000E66EB9EC01F0E552300EE66EB5DFE552E2
:1000A000010EE66EB9EC01F0E552320EE66EACDF01
:1000B000E552D0EC01F0000901E0FBD7D0EC01F0F3
:1000C000000901E0FBD7FE0EDBCFE6FF9DDFE55226
:1000D000D0EC01F0000901E0FBD7080EE66E94DFDA
:1000E000E552D0EC01F0000901E0FBD70F0EE66EFF
:1000F0008BDFE552D0EC01F0000901E0FBD7010EE7
:10010000E66E82DFE552D0EC01F0000901E0FBD79A
:10011000800EE66E8EEC01F0E55200D0E552E7CF9E
:04012000D9FF1200F1
:0C012400D9CFE6FFE1CFD9FFE652DF6A39
:100130000A0EDF5C07E2320EE66E14EC02F0E552C6
:10014000DF2AF6D7E552E552E7CFD9FF12004B0E72
:10015000E66EE6EC01F0E55200D01200D9CFE6FFE2
:10016000E1CFD9FFE652DF6A140EDF5C07E2190E19
:10017000E66EE6EC01F0E552DF2AF6D700D0E55254
:10018000E552E7CFD9FF1200D9CFE6FFE1CFD9FF83
:10019000E652DF6AFE0EDB50D880DF5407E3050E1F
:1001A000E66EE6EC01F0E552DF2AF4D700D0E55226
:1001B000E552E7CFD9FF1200D9CFE6FFE1CFD9FF53
:1001C000020EE126DF6AFE0EDB50DF5C13E2010E59
:1001D000DB6A0A0EF36E010EDBCFF4FFF350F45C22
:1001E00007E2640EE66ED0DFE552010EDB2AF1D79E
:1001F000DF2AE9D7020EE15C02E2E16AE552E16E34
:08020000E552E7CFD9FF12001F
:08020800060EF66E000EF76E03
:10021000000EF86E00010900F550656F0900F550F9
:10022000666F03E1656701D03DD00900F550606F4E
:100230000900F550616F0900F550626F090009006F
:10024000F550E96E0900F550EA6E09000900090051
:10025000F550636F0900F550646F09000900F6CF8F
:1002600067F0F7CF68F0F8CF69F060C0F6FF61C0C3
:10027000F7FF62C0F8FF0001635302E1645307E037
:100280000900F550EE6E6307F8E26407F9D767C01E
:10029000F6FF68C0F7FF69C0F8FF00016507000EB0
:0602A000665BBFD71200EF
:0A02A600D9CFE6FFE1CFD9FF020E29
:1002B000E126010EDB6AE66A35EC00F0E5520C0E31
:1002C000E66E04EC00F0E552410EDF6E010EDB6AD3
:1002D000010EDB501A0817E0840EE66E04EC00F005
:1002E000E552DF50DF2AE66E1CEC00F0E552010E0D
:1002F000DB2AE66EDCEC00F0E552010EE66E04EC63
:1003000000F0E552E5D7E0D7020EE15C02E2E16AD7
:0C031000E552E16EE552E7CFD9FF120084
:04031C00D9CFE6FF50
:10032000DACFE6FFE1CFD9FFE2CFDAFFF00E931686
:100330008116FD0EDB508009E8380F0B0F0B811280
:100340008A9C8A9A0FD8F00E8116FD0EDB500F0B97
:10035000811208D80F0E9312E552E5CFDAFFE7CFEE
:10036000D9FF120092EC00F08A8892EC00F08A9893
:02037000120079
:0E037200FF0EE350036EEF0E01D0F30EE76EA8
:10038000E72EC0EF01F00C0E026EE76AE72EC6EF13
:1003900001F0022EC5EF01F0032EBEEF01F01200B6
:1003A0008A8C8A9A92EC00F08A8892EC00F081A6FE
:1003B00002D003D8010C01D8000C8A9892EC00F00E
:0C03C0008A8892EC00F08A988A9C120057
:0403CC00FF0EE350ED
:1003D000036E480E01D04C0EE76EE72EFED7E76A9B
:0C03E000E72EFED7032EF7D70000120016
:0403EC00000EF36E9E
:1003F00000EE00F0080E01D81200EA6002D0EE6AAA
:0C040000FCD7F350E9601200EE6AFCD754
:04040C0013EE00F0FB
:1004100023EE00F0F86A019C04EC01F01FEC02F0FE
:0804200053EC01F0FBD71200C0
:08042800FF0EE350E84E120044
:0E043000000000D000D000D0E82EFAD7120055
:02043E001200AA
:020000040030CA
:010001000CF2
:0100020019E4
:010003001EDE
:010005008179
:010006008079
:010008000FE8
:00000001FF
